:100000000C94340018950000189500001895000015
:10001000189500001895000018950000189500002C
:10002000189500001895000018950000189500001C
:10003000189500001895000018950000189500000C
:100040000C94D403189500000C94D6040C94040569
:1000500018950000189500001895000018950000EC
:1000600018950000189500008FEF8DBFC0EDE8EAED
:100070004E2E88E08EBFD8E0F8E05F2EA89584B7BA
:10008000082E877F84BF88E1992780936000909332
:100090006000EEEFF7E0A0E0B1E088278D933197A4
:1000A000E9F783E38093C40080E08093C50088E192
:1000B0008093C10066248091C10080688093C10054
:1000C0008FEF84B98FED85B983EC87B98FEF88B94D
:1000D0008EEF8AB98FEF8BB984E085BD80E084BD57
:1000E00080916E00816080936E00789488EC80939C
:1000F000140184B7877F84BF8FE18093600087E01D
:1001000080936000809160008860809360000E940E
:100110005D04082F013081E009F080E08F93A2E1B7
:10012000B1E08C9182FB81E00EF480E09F91892305
:10013000882311F40C9401010E946304A3E1B1E04F
:100140008C93009113010F3718F011F00C94AA0052
:100150000C94B30080E0809314018091130180938C
:1001600018010C94010100911401083C10F00C944A
:100170000101A4E1B1E08C918F5F8C930091140197
:1001800041E0041BACE1B1E00C93ACE1B1E08C9137
:10019000A8E1B1E00E94D0040E94C6040C9008229D
:1001A000689409F4E894A3E1B1E08C9187F98C9309
:1001B00000911401013011F00C94E40080911301BE
:1001C000809319010C94F600023011F00C94EE00AB
:1001D0008091130180931A010C94F600033011F002
:1001E0000C94F6008091130180931B01009114017F
:1001F000033011F00C94010180911201846080930E
:100200001201A2E1B1E08C9182FB16F00C94AB03D9
:1002100000911901003011F00C941B01AAE1B1E02A
:10022000BA93AA93ABE1B1E0BA93AA930E943E04B9
:1002300024960C94A603013011F00C949501409182
:100240001B0100911A01041711F00C9488018FEF23
:1002500080931F0100911A01083010F00C944001A6
:10026000E894AAE1B1E08C91AFE1B1E00E94D00442
:100270000E94C6040C9016F0092201C0082A0C92B4
:10028000AFE1B1E08C9180FBA5E2B0E08C9181F907
:100290008C93AFE1B1E08C9181FBA5E2B0E08C9151
:1002A00080F98C93AFE1B1E08C9182FBABE2B0E0DE
:1002B0008C9187F98C93AFE1B1E08C9183FBABE239
:1002C000B0E08C9186F98C93AFE1B1E08C9184FB26
:1002D000ABE2B0E08C9185F98C93AFE1B1E08C9109
:1002E00085FBABE2B0E08C9182F98C93AFE1B1E099
:1002F0008C9186FBABE2B0E08C9183F98C93AFE1FB
:10030000B1E08C9187FBABE2B0E08C9184F98C93E7
:10031000AAE1B1E0BA93AA93ABE1B1E0BA93AA9390
:100320000E943E0424960C94A603023011F00C9413
:10033000FD0140911B0100911A01041711F00C946A
:10034000F001AAE1B1E0EFE1F1E08C9180958083CA
:10035000AFE1B1E08C9180FBA5E2B0E08C9181F936
:100360008C93AFE1B1E08C9181FBA5E2B0E08C9180
:1003700080F98C93AFE1B1E08C9182FBABE2B0E00D
:100380008C9187F98C93AFE1B1E08C9183FBABE268
:10039000B0E08C9186F98C93AFE1B1E08C9184FB55
:1003A000ABE2B0E08C9185F98C93AFE1B1E08C9138
:1003B00085FBABE2B0E08C9182F98C93AFE1B1E0C8
:1003C0008C9186FBABE2B0E08C9183F98C93AFE12A
:1003D000B1E08C9187FBABE2B0E08C9184F98C9317
:1003E000AAE1B1E0BA93AA93ABE1B1E0BA93AA93C0
:1003F0000E943E0424960C94A603033011F00C9442
:10040000390240911B0100911A01041711F00C945C
:100410002C02AAE1B1E08C9180FB882780F98095BD
:1004200080FBA5E2B0E08C9183F98C93AAE1B1E066
:100430008C9181FB882780F9809580FBA5E2B0E054
:100440008C9184F98C93AAE1B1E08C9182FBA5E2B6
:10045000B0E08C9185F98C93AAE1B1E0BA93AA93AC
:10046000ABE1B1E0BA93AA930E943E0424960C94A7
:10047000A603003411F00C949702A5E2B0E08C9131
:1004800081FBAFE1B1E08C9180F98C93A5E2B0E003
:100490008C9180FBAFE1B1E08C9181F98C93ABE260
:1004A000B0E08C9187FBAFE1B1E08C9182F98C9345
:1004B000ABE2B0E08C9186FBAFE1B1E08C9183F9C7
:1004C0008C93ABE2B0E08C9185FBAFE1B1E08C9115
:1004D00084F98C93ABE2B0E08C9182FBAFE1B1E0A8
:1004E0008C9185F98C93ABE2B0E08C9183FBAFE10A
:1004F000B1E08C9186F98C93ABE2B0E08C9184FBF7
:10050000AFE1B1E08C9187F98C93AFE1B1E08C91D0
:1005100080958C93AFE1B1E0BA93AA93AFE1B1E0DB
:10052000BA93AA930E943E0424960C94A6030D3716
:1005300011F00C94B302A0E2B1E086B18C93A0E27A
:10054000B1E00C9144E00E9451050C93A0E2B1E0AF
:10055000BA93AA93A0E2B1E0BA93AA930E943E0490
:1005600024960C94A60300911901003181E008F44F
:1005700080E08F93009119010F3181E010F009F0B4
:1005800080E09F918923882311F40C94210300912A
:10059000190140E1041BA1E2B1E00C93A1E2B1E03A
:1005A0000C9142E0049F0C92009121014AE0040F5B
:1005B000A2E2B1E00C93A2E2B1E0EC91FF27AAE144
:1005C000B1E091E07BE70E943905A2E2B1E08C91B5
:1005D0008F5F8C93A2E2B1E0EC91FF27ABE1B1E039
:1005E00091E07BE70E9439050091210142E3040F6D
:1005F000A2E2B1E00C93A2E2B1E0EC91FF27AAE104
:10060000B1E091E07BE70E943905A2E2B1E08C9174
:100610008F5F8C93A2E2B1E0EC91FF27ABE1B1E0F8
:1006200091E07BE70E943905AAE1B1E0BA93AA9371
:10063000ABE1B1E0BA93AA930E943E0424960C94D5
:10064000A60300911901003581E008F480E08F9342
:10065000009119010F3581E010F009F080E09F91C1
:100660008923882311F40C94A6030091190140E515
:10067000041BA1E2B1E00C93A1E2B1E00C9142E0D5
:10068000049F0C92009121014AE0040FA2E2B1E024
:100690000C93A2E2B1E0EC91FF27A3E2B1E091E07C
:1006A0000E944A05A2E2B1E08C918F5F8C93A2E296
:1006B000B1E0EC91FF27A5E2B1E091E00E944A058C
:1006C0000091210142E3040FA2E2B1E00C93A2E207
:1006D000B1E0EC91FF27A4E2B1E091E00E944A056D
:1006E000A2E2B1E08C918F5F8C93A2E2B1E0EC9139
:1006F000FF27A6E2B1E091E00E944A054091240163
:1007000000912301041781E009F480E08F93409168
:10071000260100912501041781E009F480E09F91F2
:10072000892B882311F40C949B0380E08093230190
:1007300080E080932501A3E2B1E0BA93AA93A5E2F9
:10074000B1E0BA93AA930E943E04249680911201CC
:100750008B7F80931201A2E1B1E08C9186FB16F0B1
:100760000C94B703809112018F7B80931201A2E158
:10077000B1E08C9185FB16F00C94C40380911201BA
:100780008F7D80931201A895A2E1B1E08C9183FB4B
:1007900016F00C94D00380911201877F8093120190
:1007A0000C948700F894FFCF0F921F922F923F92E4
:1007B0004F925F927F92AF92BF920F931F932F93AE
:1007C0003F934F935F936F937F938F939F93AF93D9
:1007D000BF93CF93DF93EF93FF938FB78F9386E011
:1007E00086BD80911201806480931201A0E1B1E086
:1007F0008C918F5F8C93009110010D3711F00C9448
:10080000220480E080931001809112018062809325
:100810001201A2E1B1E08C9187FB882780F98095D5
:1008200080FBA2E1B1E08C9187F98C93A2E1B1E069
:100830008C9187FB16F40C9422048091120188603D
:10084000809312018F918FBFFF91EF91DF91CF9134
:10085000BF91AF919F918F917F916F915F914F91D8
:100860003F912F911F910F91BF90AF907F905F901C
:100870004F903F902F901F900F90189531E0A9E175
:10088000B1E00E948C0431E0AA81BB810E948C04FB
:1008900031E0A881B9810E948C0431E0A9E1B1E086
:1008A0000E948C0431E0AA81BB810E948C0431E05B
:1008B000A881B9810E948C04089580910701882342
:1008C00009F081E0089580910701882309F40895D3
:1008D0000F929F93AF93BF937F93809107018823DB
:1008E000E1F3F894809107018A9580930701909134
:1008F0000501A0E0B1E0A90F0024B01D8C919395F3
:10090000953009F499279093050178947F91BF91D0
:10091000AF919F910F9008958D9103D03A95E1F793
:1009200008959F939FB79F93AF93BF930F937F9328
:1009300090910F019530E1F3F89490910F01939508
:1009400090930F01992700910E01A8E0B1E0A00F4C
:10095000B91F8C930395053009F4002700930E010D
:100960008091C10080628093C1007F910F91BF91FF
:10097000AF919F919FBF9F9108953197F1F708958F
:10098000689462F80895E89462F8089591E08823E5
:1009900021F08894991F8A95E9F7892F90950895F9
:1009A000883018F011968850FBCF08957F930F93ED
:1009B000AF93BF938F939F938FB78F9380910701CE
:1009C00005E0081B29F49091C6000E94C00413C0E2
:1009D00000910601A0E0B1E077279091C600A00F3A
:1009E000B71F9C938395809307010395053009F405
:1009F0000027009306018F918FBF9F918F91BF9128
:100A0000AF910F917F9118957F93AF93BF938F9381
:100A10009F938FB78F9390910F019923A1F09A958F
:100A200090930F019927A8E0B1E080910D01A80FE4
:100A3000B91F9C918395853009F4882780930D0117
:100A40009093C60005C08091C1008F7D8093C10046
:100A50008F918FBF9F918F91BF91AF917F9118958B
:100A6000F999FECFE1BDF2BD3196089591E001C044
:100A700092E07B3751F47FB7F894F2DF8D9180BD1F
:100A8000FA9AF99A9A95C9F77FBF7727089591E066
:100A900001C092E0E5DFF89A80B58D939A95D1F781
:100AA0000895FF93881BF9E0001FFA9511F4FF9158
:100AB0000895881F841B18F4840F8894F5CF089438
:020AC000F3CF72
:00000001FF
